:100000000C942A000C943F000C943F000C943F0089
:100010000C943F000C943F000C943F000C943F0064
:100020000C943F000C943F000C943F000C943F0054
:100030000C943F000C943F000C943F000C943F0044
:100040000C943F000C943F000C943F000C943F0034
:100050000C943F0011241FBECFE5D8E0DEBFCDBF1A
:1000600010E0A0E6B0E0E8E3F0E302C005900D92F6
:10007000AE3EB107D9F70E94BD110C941A180C942A
:100080000000EF92FF920F931F937B018C0120E001
:1000900030E040E05FE40E94ED0388238CF0C8016B
:1000A000B70120E030E040E05FE40E94B9010E9427
:1000B0004D049B01AC01205030404040504806C0E8
:1000C000C801B7010E944D049B01AC01B901CA01EE
:1000D0001F910F91FF90EF900895A0E0B0E0E3E74B
:1000E000F0E00C94E317DC012B01FA019C919230B3
:1000F00008F439C1EB018881823008F433C19430AF
:1001000069F4843009F02FC111969C91119789816F
:10011000981709F428C1AEECB0E025C1843009F489
:1001200021C18230A9F4923009F01DC19A01AD01BC
:1001300088E0EA010990AE01E90109929E0181502F
:10014000C1F7E201898111969C918923818308C1BD
:10015000923009F407C112962D903C901397EB0151
:100160008A819B811496AD90BD90CD90DC901797BD
:10017000EC80FD800E811F819101281B390BB90194
:1001800037FF04C066277727621B730B6032710547
:100190000CF061C0121613066CF537014801062EEB
:1001A00004C096948794779467940A94D2F721E0D8
:1001B00030E040E050E004C0220F331F441F551FC1
:1001C0006A95D2F721503040404050402E213F21C7
:1001D00040235123211531054105510521F021E02E
:1001E00030E040E050E079018A01E628F72808294C
:1001F00019293CC0232BD1F1260E371E35014601AB
:10020000062E04C096948794779467940A94D2F744
:1002100021E030E040E050E004C0220F331F441FD3
:10022000551F6A95D2F721503040404050402A2156
:100230003B214C215D21211531054105510521F05E
:1002400021E030E040E050E059016A01A628B728DB
:10025000C828D9280BC0821593052CF01C01AA24AC
:10026000BB24650103C0EE24FF24870111969C91F5
:10027000D20111968C91981709F445C0992339F051
:10028000A80197012A193B094C095D0906C0A6017E
:1002900095012E193F09400B510B57FD08C01182E3
:1002A0003382228224833583468357831DC081E0B5
:1002B00081833382228288279927DC01821B930B5A
:1002C000A40BB50B84839583A683B7830DC0220F3F
:1002D000331F441F551F24833583468357838281F0
:1002E000938101979383828324813581468157814D
:1002F000DA01C9010197A109B1098F5F9F4FAF4F83
:10030000BF4328F30BC0918333822282EA0CFB1C8B
:100310000C1D1D1DE482F5820683178383E0808314
:10032000248135814681578157FF1AC0C901AA2708
:1003300097FDA095BA2F81709070A070B0705695FF
:10034000479537952795822B932BA42BB52B848328
:100350009583A683B7838281938101969383828359
:10036000DF0101C0D201CD01CDB7DEB7E2E10C94CF
:10037000FF17A0E2B0E0EFEBF1E00C94EF17698318
:100380007A838B839C832D833E834F835887E9E058
:10039000EE2EF12CEC0EFD1ECE010196B7010E944F
:1003A00076058E010F5E1F4FCE010596B8010E94A3
:1003B00076058A8991E089278A8BC701B801AE0149
:1003C000475E5F4F0E946D000E94A104A096E6E088
:1003D0000C940B18A0E2B0E0E0EFF1E00C94EF1702
:1003E00069837A838B839C832D833E834F835887D5
:1003F000F9E0EF2EF12CEC0EFD1ECE010196B701B7
:100400000E9476058E010F5E1F4FCE010596B80142
:100410000E947605C701B801AE01475E5F4F0E949A
:100420006D000E94A104A096E6E00C940B18A0E2D7
:10043000B0E0EDE1F2E00C94E31769837A838B83FB
:100440009C832D833E834F835887CE010196BE0146
:10045000675F7F4F0E947605CE010596BE016F5EF5
:100460007F4F0E9476059985923088F08989823085
:10047000C8F0943019F4823051F404C0843029F467
:10048000923081F48EEC90E0C6C0923049F420E0C6
:100490009A858A89981321E02A87CE010996BBC0E4
:1004A000823049F420E09A858A89981321E02A8BCA
:1004B000CE014196B0C02D843E844F8458886D880B
:1004C0007E888F88988CEE24FF248701AA24BB2481
:1004D000650140E050E060E070E0E0E0F0E0C10184
:1004E00081709070892BE9F0E60CF71C081D191D2E
:1004F0009A01AB012A0D3B1D4C1D5D1D80E090E073
:10050000A0E0B0E0E614F7040805190520F481E046
:1005100090E0A0E0B0E0BA01A901480F591F6A1F9E
:100520007B1FAA0CBB1CCC1CDD1C97FE08C081E005
:1005300090E0A0E0B0E0A82AB92ACA2ADB2A3196C6
:10054000E032F10549F0660C771C881C991C569422
:10055000479437942794C3CFFA85EA892B893C893D
:100560008B859C85280F391F2E5F3F4F17C0CA010E
:1005700081709070892B61F016950795F794E79438
:1005800080E090E0A0E0B0E8E82AF92A0A2B1B2BD3
:1005900076956795579547952F5F3F4F77FDE7CF46
:1005A0000CC0440F551F661F771F17FD4160EE0CEE
:1005B000FF1C001F111F21503040403090E05907B0
:1005C00090E0690790E4790760F32B8F3C8FDB01A3
:1005D000CA018F779070A070B07080349105A1052A
:1005E000B10561F447FD0AC0E114F10401051105EC
:1005F00029F0405C5F4F6F4F7F4F40781A8EFE1797
:1006000011F081E08A8F4D8F5E8F6F8F78A383E02A
:10061000898FCE0149960E94A104A096E2E10C9434
:10062000FF17A8E1B0E0E7E1F3E00C94EB17698372
:100630007A838B839C832D833E834F835887B9E0D5
:10064000EB2EF12CEC0EFD1ECE010196B7010E949F
:1006500076058E010F5E1F4FCE010596B8010E94F0
:1006600076052985223008F47EC03989323010F4AD
:10067000B8017CC08A859A8989278A87243011F03D
:10068000223031F4231709F06EC06EEC70E06EC0BA
:10069000343039F41D861E861F86188A1C861B86F8
:1006A00004C0323021F484E08987B7015FC02B8514
:1006B0003C858B899C89281B390B3C872B87ED84D3
:1006C000FE840F851889AD88BE88CF88D88CEA143F
:1006D000FB040C051D0540F4EE0CFF1C001F111F50
:1006E000215030403C872B8720E030E040E050E054
:1006F00080E090E0A0E0B0E460E070E0EA14FB0489
:100700000C051D0540F0282B392B4A2B5B2BEA18D2
:10071000FB080C091D09B695A79597958795EE0CD2
:10072000FF1C001F111F6F5F7F4F6F31710531F785
:10073000DA01C9018F779070A070B0708034910594
:10074000A105B10561F427FD0AC0E114F10401051A
:10075000110529F0205C3F4F4F4F5F4F20782D87C8
:100760003E874F87588BBE01675F7F4FCB010E944A
:10077000A1046896EAE00C940718A8E1B0E0E3EC65
:10078000F3E00C94EF1769837A838B839C832D832A
:100790003E834F83588789E0E82EF12CEC0EFD1E36
:1007A000CE010196B7010E9476058E010F5E1F4FA4
:1007B000CE010596B8010E9476058985823040F009
:1007C0008989823028F0C701B8010E94EE0501C076
:1007D0008FEF6896E6E00C940B18A8E1B0E0E3EF29
:1007E000F3E00C94EF1769837A838B839C832D83CA
:1007F0003E834F83588789E0E82EF12CEC0EFD1ED6
:10080000CE010196B7010E9476058E010F5E1F4F43
:10081000CE010596B8010E9476058985823040F0A8
:100820008989823028F0C701B8010E94EE0501C015
:100830008FEF6896E6E00C940B18A8E1B0E0E3E2D5
:10084000F4E00C94EF1769837A838B839C832D8368
:100850003E834F83588789E0E82EF12CEC0EFD1E75
:10086000CE010196B7010E9476058E010F5E1F4FE3
:10087000CE010596B8010E9476058985823040F048
:100880008989823028F0C701B8010E94EE0501C0B5
:1008900081E06896E6E00C940B18ACE0B0E0E3E58C
:1008A000F4E00C94F31769837A838B839C83CE01E5
:1008B0000196BE016B5F7F4F0E9476058D8182306D
:1008C00061F1823050F1843021F48E81882351F11E
:1008D0002EC02F81388537FD20C06E812F31310524
:1008E0001CF06623F9F023C08EE190E0821B930B8D
:1008F00029853A854B855C8504C056954795379583
:1009000027958A95D2F76623B1F05095409530959A
:1009100021953F4F4F4F5F4F0EC020E030E040E049
:1009200050E009C02FEF3FEF4FEF5FE704C020E03A
:1009300030E040E050E8B901CA012C96E2E00C94A6
:100940000F18DF92EF92FF920F931F93FC01E48048
:10095000F58006811781D1808081823048F480E063
:1009600090E0A0E1B0E0E82AF92A0A2B1B2BA5C0F1
:10097000843009F49FC0823021F4EE24FF248701E3
:1009800005C0E114F1040105110519F4E0E0F0E0FF
:1009900096C0628173819FEF623879070CF05BC06B
:1009A00022E83FEF261B370B2A3131052CF020E0DF
:1009B00030E040E050E02AC0B801A701022E04C098
:1009C00076956795579547950A94D2F781E090E020
:1009D000A0E0B0E004C0880F991FAA1FBB1F2A9592
:1009E000D2F70197A109B1098E219F21A023B1233C
:1009F0000097A105B10521F081E090E0A0E0B0E012
:100A00009A01AB01282B392B4A2B5B2BDA01C90148
:100A10008F779070A070B07080349105A105B105FA
:100A200039F427FF09C0205C3F4F4F4F5F4F04C090
:100A3000215C3F4F4F4F5F4FE0E0F0E02030A0E0FF
:100A40003A07A0E04A07A0E45A0710F0E1E0F0E01E
:100A500079018A0127C06038710564F5FB01E1580E
:100A6000FF4FD801C7018F779070A070B0708034AD
:100A70009105A105B10539F4E7FE0DC080E490E0D1
:100A8000A0E0B0E004C08FE390E0A0E0B0E0E80EAA
:100A9000F91E0A1F1B1F17FF05C016950795F7942F
:100AA000E794319687E016950795F794E7948A9531
:100AB000D1F705C0EE24FF248701EFEFF0E06E2FA1
:100AC000679566276795902F9F77D794DD24D794F5
:100AD0008E2F8695492F462B582F5D29B701CA01C5
:100AE0001F910F91FF90EF90DF900895FC01DB01C3
:100AF000408151812281622F6F7770E0221F22276F
:100B0000221F9381892F880F822B282F30E0991F75
:100B10009927991F11969C93119721153105A9F5D5
:100B2000411551056105710511F482E037C082E875
:100B30009FEF13969C938E9312979A01AB0167E0F7
:100B4000220F331F441F551F6A95D1F783E08C9302
:100B50000DC0220F331F441F551F12968D919C917B
:100B60001397019713969C938E931297203080E0F1
:100B7000380780E0480780E4580758F314962D930F
:100B80003D934D935C93179708952F3F310579F46A
:100B9000411551056105710519F484E08C930895A0
:100BA00064FF03C081E08C9312C01C9210C02F57C9
:100BB000304013963C932E93129783E08C9387E0FA
:100BC000440F551F661F771F8A95D1F770641496DE
:100BD0004D935D936D937C93179708951F93DC015C
:100BE000FB019C91923008F447C08081823008F468
:100BF00043C0943051F411961C91843099F5818151
:100C0000682F70E0611B71093FC0843021F0923081
:100C100031F48230B9F18181882389F12DC0119698
:100C20001C9111978230F1F081811817D9F4129636
:100C30002D913C911397828193818217930794F0B1
:100C400028173907BCF014968D919D910D90BC9199
:100C5000A02D2481358146815781281739074A07FD
:100C60005B0718F4112341F00AC082179307A40709
:100C7000B50740F4112319F061E070E005C06FEF93
:100C80007FEF02C060E070E0CB011F910895DF9319
:100C9000CF9300D0CDB7DEB789836A838981882F4F
:100CA00090E0880F991FFC01EA52FF4F0190F081FC
:100CB000E02D8A8180830F900F90CF91DF9108956E
:100CC000DF93CF9300D0CDB7DEB789836A83898164
:100CD000882F90E0880F991FFC01E252FF4F01908E
:100CE000F081E02D8A8180830F900F90CF91DF916A
:100CF0000895DF93CF930F92CDB7DEB789838981B3
:100D0000882F90E0880F991FFC01EA51FF4F019056
:100D1000F081E02D80810F90CF91DF910895DF93D6
:100D2000CF9300D000D0CDB7DEB789836A838A81A4
:100D3000282F30E03C832B838B819C81009731F0FE
:100D40002B813C812130310581F15CC08981869500
:100D500086958695882F90E0880F991FFC01EA52AE
:100D6000FF4FA081B1818981869586958695882FD0
:100D700090E0880F991FFC01EA52FF4F0190F0812B
:100D8000E02D8081482F8981882F90E09C01277079
:100D9000307081E090E0022E02C0880F991F0A9403
:100DA000E2F7809584238C932DC089818695869562
:100DB0008695882F90E0880F991FFC01EA52FF4F1B
:100DC000A081B1818981869586958695882F90E04E
:100DD000880F991FFC01EA52FF4F0190F081E02D2E
:100DE0008081482F8981882F90E09C012770307086
:100DF00081E090E0022E02C0880F991F0A94E2F76A
:100E0000842B8C930F900F900F900F90CF91DF91C8
:100E10000895DF93CF9300D000D0CDB7DEB789839C
:100E20006A838A81282F30E03C832B838B819C81CD
:100E300081309105D1F12B813C812230310509F4BB
:100E400062C08B819C81009709F08AC08981869558
:100E500086958695882F90E0880F991FFC01E252B5
:100E6000FF4FA081B1818981869586958695882FCF
:100E700090E0880F991FFC01E252FF4F0190F08132
:100E8000E02D8081482F8981882F90E09C01277078
:100E9000307081E090E0022E02C0880F991F0A9402
:100EA000E2F7809584238C935BC089818695869533
:100EB0008695882F90E0880F991FFC01E252FF4F22
:100EC000A081B1818981869586958695882F90E04D
:100ED000880F991FFC01E252FF4F0190F081E02D35
:100EE0008081482F8981882F90E09C012770307085
:100EF00081E090E0022E02C0880F991F0A94E2F769
:100F0000842B8C932DC08981869586958695882F14
:100F100090E0880F991FFC01E252FF4FA081B18140
:100F20008981869586958695882F90E0880F991FF0
:100F3000FC01E252FF4F0190F081E02D8081482FAB
:100F40008981882F90E09C012770307081E090E0CB
:100F5000022E02C0880F991F0A94E2F784278C930F
:100F60000F900F900F900F90CF91DF910895DF9326
:100F7000CF9300D000D00F92CDB7DEB79B838A838A
:100F80006C834D83198293C08D81882309F047C0FB
:100F90008981282F30E08A819B81FC01E20FF31FB9
:100FA0008081869586958695882F90E0880F991F79
:100FB000FC01EA52FF4FA081B1818981282F30E0E6
:100FC0008A819B81FC01E20FF31F808186958695C3
:100FD0008695882F90E0880F991FFC01EA52FF4FF9
:100FE0000190F081E02D8081482F8981282F30E009
:100FF0008A819B81FC01E20FF31F8081882F90E0A2
:101000009C012770307081E090E0022E02C0880FB2
:10101000991F0A94E2F7809584238C9345C08981B7
:10102000282F30E08A819B81FC01E20FF31F808131
:10103000869586958695882F90E0880F991FFC01EC
:10104000EA52FF4FA081B1818981282F30E08A8147
:101050009B81FC01E20FF31F808186958695869522
:10106000882F90E0880F991FFC01EA52FF4F0190F2
:10107000F081E02D8081482F8981282F30E08A81FE
:101080009B81FC01E20FF31F8081882F90E09C017F
:101090002770307081E090E0022E02C0880F991F07
:1010A0000A94E2F7842B8C9389818F5F89839981DD
:1010B0008C81981708F468CF0F900F900F900F90C5
:1010C0000F90CF91DF910895DF93CF930F92CDB71B
:1010D000DEB789838981869586958695882F90E0ED
:1010E000880F991FFC01EA51FF4F0190F081E02D1C
:1010F0008081282F30E08981882F90E08770907060
:10110000A90102C0559547958A95E2F7CA018170F9
:101110000F90CF91DF910895DF93CF93CDB7DEB7D6
:1011200080E060E00E944706A7E2B0E0E7E2F0E07E
:1011300080818F778C93A7E2B0E0E7E2F0E08081D6
:1011400080648C93A6E2B0E0E6E2F0E08081806803
:101150008C93A7E2B0E0E7E2F0E080818F7D8C9392
:10116000A6E2B0E0E6E2F0E0808184608C93CF916B
:10117000DF910895DF93CF9300D000D0CDB7DEB7D5
:101180009C838B831A821982A7E2B0E0E7E2F0E049
:101190008081982F907E8B81892B8C93A6E2B0E082
:1011A000E6E2F0E0808180648C93E6E2F0E080810A
:1011B00082958F70882F90E0817090700097A9F3CE
:1011C000E4E2F0E08081282F30E0E5E2F0E0808189
:1011D000882F90E0982F8827820F931F9A83898306
:1011E00089819A810F900F900F900F90CF91DF918E
:1011F00008950F931F93DF93CF93CDB7DEB7C755F5
:10120000D0400FB6F894DEBF0FBECDBFFE01E95A45
:10121000FF4F8083A8E3B0E0E8E3F0E080818F70C7
:101220008C93A8E3B0E0E8E3F0E08081982FFE0122
:10123000E95AFF4F8081807F892B8C93A8E3B0E02F
:10124000E8E3F0E080818E7F8C93A8E3B0E0E8E3F0
:10125000F0E0808182608C93FE01ED5AFF4F80E0C8
:1012600090E0A0E8BFE380839183A283B3838E01E3
:10127000015B1F4FFE01ED5AFF4F6081718182813A
:1012800093812BEA3AEA4AE250E40E941702DC0119
:10129000CB01F80180839183A283B383FE01E15BDC
:1012A000FF4F608171818281938120E030E040E8CE
:1012B0005FE30E941D04882334F4FE01E25BFF4FCC
:1012C00081E08083E0C0FE01E15BFF4F60817181BE
:1012D0008281938120E030E04FE753E40E94BD0318
:1012E00018160CF0C0C0FE01ED5AFF4F60817181ED
:1012F0008281938120E030E04AE754E40E941103A8
:10130000DC01CB01FE01E65BFF4F80839183A2836A
:10131000B3838E010A5B1F4FFE01E65BFF4F6081C6
:1013200071818281938120E030E04AEF54E40E9491
:101330001702DC01CB01F80180839183A283B38380
:10134000FE01EA5BFF4F608171818281938120E021
:1013500030E040E85FE30E941D04882344F4FE016E
:10136000EC5BFF4F81E090E09183808364C0FE01DD
:10137000EA5BFF4F608171818281938120E03FEFC2
:101380004FE757E40E94BD0318160CF043C0FE015E
:10139000E65BFF4F608171818281938120E030E0C4
:1013A00040E251E40E941702DC01CB018E010C5B8C
:1013B0001F4FBC01CD010E944100DC01CB01F801AF
:1013C000918380831FC0FE01EE5BFF4F88EC90E0AD
:1013D00091838083FE01EE5BFF4F808191810197B5
:1013E000F1F7FE01EE5BFF4F91838083DE01AC5B82
:1013F000BF4FFE01EC5BFF4F8081918101971196F9
:101400009C938E93FE01EC5BFF4F8081918100974E
:10141000D1F642C08E010C5B1F4FFE01EA5BFF4F0D
:1014200060817181828193810E944100DC01CB0146
:10143000F80191838083DE01A05CBF4FFE01EC5B6D
:10144000FF4F8081918111969C938E93FE01E05C09
:10145000FF4F808191810197F1F7FE01E05CFF4F22
:101460009183808319C08E01025B1F4FFE01E15BF7
:10147000FF4F60817181828193810E944100DC0174
:10148000CB01F8018083FE01E25BFF4F80818FAFCB
:101490008FAD8A95F1F78FAFA8E3B0E0E8E3F0E015
:1014A00080818D7F8C9380E090E0A8E4B3E48BAFE3
:1014B0009CAFADAFBEAF6BAD7CAD8DAD9EAD2BEA3D
:1014C0003AEA4AE250E40E941702DC01CB018FABFA
:1014D00098AFA9AFBAAF6FA978AD89AD9AAD20E04A
:1014E00030E040E85FE30E941D0488231CF481E0A3
:1014F0008EAB91C06FA978AD89AD9AAD20E030E098
:101500004FE753E40E94BD0318160CF07BC06BAD8F
:101510007CAD8DAD9EAD20E030E04AE754E40E9402
:101520001103DC01CB018AAB9BABACABBDAB6AA9B1
:101530007BA98CA99DA920E030E04AEF54E40E94E9
:101540001702DC01CB018EA79FA7A8ABB9AB6EA594
:101550007FA588A999A920E030E040E85FE30E94D8
:101560001D0488232CF481E090E09DA78CA73FC048
:101570006EA57FA588A999A920E03FEF4FE757E422
:101580000E94BD0318164CF56AA97BA98CA99DA9D8
:1015900020E030E040E251E40E941702DC01CB0180
:1015A000BC01CD010E944100DC01CB019DA78CA7AD
:1015B0000FC088EC90E09BA78AA78AA59BA50197FE
:1015C000F1F79BA78AA78CA59DA501979DA78CA73E
:1015D0008CA59DA5009769F724C06EA57FA588A955
:1015E00099A90E944100DC01CB019DA78CA78CA585
:1015F0009DA599A788A788A599A50197F1F799A70F
:1016000088A70FC06FA978AD89AD9AAD0E9441003F
:10161000DC01CB018EAB8EA98FA38FA18A95F1F748
:101620008FA3A8E3B0E0E8E3F0E080818F708C93B3
:10163000A8E3B0E0E8E3F0E08081282FFE01E95A5A
:10164000FF4F8081882F90E082959295907F982718
:10165000807F9827822B8C93A8E3B0E0E8E3F0E04A
:10166000808182608C9380E090E0A0E8BFE38BA350
:101670009CA3ADA3BEA36BA17CA18DA19EA12BEACF
:101680003AEA4AE250E40E941702DC01CB018F8F54
:1016900098A3A9A3BAA36F8D78A189A19AA120E0EC
:1016A00030E040E85FE30E941D0488231CF481E0E1
:1016B0008E8F91C06F8D78A189A19AA120E030E032
:1016C0004FE753E40E94BD0318160CF07BC06BA1DA
:1016D0007CA18DA19EA120E030E04AE754E40E9465
:1016E0001103DC01CB018A8F9B8FAC8FBD8F6A8D7C
:1016F0007B8D8C8D9D8D20E030E04AEF54E40E947C
:101700001702DC01CB018E8B9F8BA88FB98F6E895E
:101710007F89888D998D20E030E040E85FE30E946A
:101720001D0488232CF481E090E09D8B8C8B3FC0BE
:101730006E897F89888D998D20E03FEF4FE757E4D0
:101740000E94BD0318164CF56A8D7B8D8C8D9D8D86
:1017500020E030E040E251E40E941702DC01CB01BE
:10176000BC01CD010E944100DC01CB019D8B8C8B23
:101770000FC088EC90E09B8B8A8B8A899B890197AC
:10178000F1F79B8B8A8B8C899D8901979D8B8C8B24
:101790008C899D89009769F724C06E897F89888D1F
:1017A000998D0E944100DC01CB019D8B8C8B8C8933
:1017B0009D89998B888B888999890197F1F7998BF5
:1017C000888B0FC06F8D78A189A19AA10E944100DA
:1017D000DC01CB018E8F8E8D8F878F858A95F1F7F7
:1017E0008F87A8E3B0E0E8E3F0E080818D7F8C9301
:1017F00080E090E0A0E0B0E48B879C87AD87BE8757
:101800006B857C858D859E8520E030E04AEF54E431
:101810000E941702DC01CB018F839887A987BA87C2
:101820006F81788589859A8520E030E040E85FE324
:101830000E941D0488232CF481E090E09E838D8318
:101840003FC06F81788589859A8520E03FEF4FE71B
:1018500057E40E94BD0318164CF56B857C858D8579
:101860009E8520E030E040E251E40E941702DC0156
:10187000CB01BC01CD010E944100DC01CB019E8364
:101880008D830FC088EC90E09C838B838B819C813F
:101890000197F1F79C838B838D819E8101979E83B5
:1018A0008D838D819E81009769F714C06F81788543
:1018B00089859A850E944100DC01CB019E838D833E
:1018C0008D819E819A83898389819A810197F1F71D
:1018D0009A838983C95ADF4F0FB6F894DEBF0FBED3
:1018E000CDBFCF91DF911F910F9108950F931F935B
:1018F000DF93CF93CDB7DEB7C755D0400FB6F8947E
:10190000DEBF0FBECDBFFE01E95AFF4F8083A8E3C3
:10191000B0E0E8E3F0E080818F708C93A8E3B0E062
:10192000E8E3F0E08081982FFE01E95AFF4F8081C3
:10193000807F892B8C93A8E3B0E0E8E3F0E080811E
:1019400081608C93A8E3B0E0E8E3F0E080818260FE
:101950008C93FE01ED5AFF4F80E090E0A0E8BFE3DA
:1019600080839183A283B3838E01015B1F4FFE01AD
:10197000ED5AFF4F60817181828193812BEA3AEAAF
:101980004AE250E40E941702DC01CB01F801808397
:101990009183A283B383FE01E15BFF4F608171817C
:1019A0008281938120E030E040E85FE30E941D04E3
:1019B000882334F4FE01E25BFF4F81E08083E0C0C6
:1019C000FE01E15BFF4F608171818281938120E0A4
:1019D00030E04FE753E40E94BD0318160CF0C0C07E
:1019E000FE01ED5AFF4F608171818281938120E079
:1019F00030E04AE754E40E941103DC01CB01FE0110
:101A0000E65BFF4F80839183A283B3838E010A5BE1
:101A10001F4FFE01E65BFF4F6081718182819381E0
:101A200020E030E04AEF54E40E941702DC01CB01D1
:101A3000F80180839183A283B383FE01EA5BFF4FA9
:101A4000608171818281938120E030E040E85FE332
:101A50000E941D04882344F4FE01EC5BFF4F81E0EB
:101A600090E09183808364C0FE01EA5BFF4F608158
:101A700071818281938120E03FEF4FE757E40E941C
:101A8000BD0318160CF043C0FE01E65BFF4F6081FA
:101A900071818281938120E030E040E251E40E9434
:101AA0001702DC01CB018E010C5B1F4FBC01CD0185
:101AB0000E944100DC01CB01F801918380831FC0AB
:101AC000FE01EE5BFF4F88EC90E091838083FE0186
:101AD000EE5BFF4F808191810197F1F7FE01EE5B94
:101AE000FF4F91838083DE01AC5BBF4FFE01EC5B57
:101AF000FF4F80819181019711969C938E93FE01F7
:101B0000EC5BFF4F808191810097D1F642C08E013E
:101B10000C5B1F4FFE01EA5BFF4F60817181828188
:101B200093810E944100DC01CB01F8019183808305
:101B3000DE01A05CBF4FFE01EC5BFF4F8081918115
:101B400011969C938E93FE01E05CFF4F8081918102
:101B50000197F1F7FE01E05CFF4F9183808319C08C
:101B60008E01025B1F4FFE01E15BFF4F60817181BF
:101B7000828193810E944100DC01CB01F8018083C6
:101B8000FE01E25BFF4F80818FAF8FAD8A95F1F749
:101B90008FAFA8E3B0E0E8E3F0E080818D7F8C9325
:101BA00080E090E0A8E4B3E48BAF9CAFADAFBEAFF4
:101BB0006BAD7CAD8DAD9EAD2BEA3AEA4AE250E4C6
:101BC0000E941702DC01CB018FAB98AFA9AFBAAF6F
:101BD0006FA978AD89AD9AAD20E030E040E85FE3D1
:101BE0000E941D0488231CF481E08EAB91C06FA974
:101BF00078AD89AD9AAD20E030E04FE753E40E9424
:101C0000BD0318160CF07BC06BAD7CAD8DAD9EADE9
:101C100020E030E04AE754E40E941103DC01CB01EC
:101C20008AAB9BABACABBDAB6AA97BA98CA99DA9C8
:101C300020E030E04AEF54E40E941702DC01CB01BF
:101C40008EA79FA7A8ABB9AB6EA57FA588A999A9B8
:101C500020E030E040E85FE30E941D0488232CF47C
:101C600081E090E09DA78CA73FC06EA57FA588A9C5
:101C700099A920E03FEF4FE757E40E94BD031816F3
:101C80004CF56AA97BA98CA99DA920E030E040E22F
:101C900051E40E941702DC01CB01BC01CD010E947E
:101CA0004100DC01CB019DA78CA70FC088EC90E020
:101CB0009BA78AA78AA59BA50197F1F79BA78AA74F
:101CC0008CA59DA501979DA78CA78CA59DA5009788
:101CD00069F724C06EA57FA588A999A90E94410033
:101CE000DC01CB019DA78CA78CA59DA599A788A7F2
:101CF00088A599A50197F1F799A788A70FC06FA9A3
:101D000078AD89AD9AAD0E944100DC01CB018EAB6C
:101D10008EA98FA38FA18A95F1F78FA3A8E3B0E0D6
:101D2000E8E3F0E080818F708C93A8E3B0E0E8E313
:101D3000F0E08081282FFE01E95AFF4F8081882F33
:101D400090E082959295907F9827807F9827822BAC
:101D50008C93A8E3B0E0E8E3F0E0808182608C93AC
:101D600080E090E0A0E8BFE38BA39CA3ADA3BEA35B
:101D70006BA17CA18DA19EA12BEA3AEA4AE250E434
:101D80000E941702DC01CB018F8F98A3A9A3BAA3ED
:101D90006F8D78A189A19AA120E030E040E85FE34F
:101DA0000E941D0488231CF481E08E8F91C06F8DEA
:101DB00078A189A19AA120E030E04FE753E40E9486
:101DC000BD0318160CF07BC06BA17CA18DA19EA158
:101DD00020E030E04AE754E40E941103DC01CB012B
:101DE0008A8F9B8FAC8FBD8F6A8D7B8D8C8D9D8DE7
:101DF00020E030E04AEF54E40E941702DC01CB01FE
:101E00008E8B9F8BA88FB98F6E897F89888D998DD6
:101E100020E030E040E85FE30E941D0488232CF4BA
:101E200081E090E09D8B8C8B3FC06E897F89888D8F
:101E3000998D20E03FEF4FE757E40E94BD0318164D
:101E40004CF56A8D7B8D8C8D9D8D20E030E040E2DD
:101E500051E40E941702DC01CB01BC01CD010E94BC
:101E60004100DC01CB019D8B8C8B0FC088EC90E096
:101E70009B8B8A8B8A899B890197F1F79B8B8A8B35
:101E80008C899D8901979D8B8C8B8C899D8900976E
:101E900069F724C06E897F89888D998D0E944100E1
:101EA000DC01CB019D8B8C8B8C899D89998B888BD8
:101EB000888999890197F1F7998B888B0FC06F8D6D
:101EC00078A189A19AA10E944100DC01CB018E8FEB
:101ED0008E8D8F878F858A95F1F78F87A8E3B0E085
:101EE000E8E3F0E080818D7F8C9380E090E0A0E0DB
:101EF000B0E48B879C87AD87BE876B857C858D859D
:101F00009E8520E030E04AEF54E40E941702DC0195
:101F1000CB018F839887A987BA876F817885898558
:101F20009A8520E030E040E85FE30E941D048823AA
:101F30002CF481E090E09E838D833FC06F81788593
:101F400089859A8520E03FEF4FE757E40E94BD0363
:101F500018164CF56B857C858D859E8520E030E0DC
:101F600040E251E40E941702DC01CB01BC01CD012B
:101F70000E944100DC01CB019E838D830FC088EC61
:101F800090E09C838B838B819C810197F1F79C83EC
:101F90008B838D819E8101979E838D838D819E8110
:101FA000009769F714C06F81788589859A850E94AA
:101FB0004100DC01CB019E838D838D819E819A83BC
:101FC000898389819A810197F1F79A838983C95A14
:101FD000DF4F0FB6F894DEBF0FBECDBFCF91DF91BC
:101FE0001F910F910895DF93CF93CDB7DEB76C9714
:101FF0000FB6F894DEBF0FBECDBFE7E3F0E08FEF82
:10200000808380E090E0A0EAB1E4898F9A8FAB8F63
:10201000BC8F698D7A8D8B8D9C8D20E030E04AEFEE
:1020200054E40E941702DC01CB018D8B9E8BAF8B99
:10203000B88F6D897E898F89988D20E030E040E8E7
:102040005FE30E941D0488232CF481E090E09C8BC8
:102050008B8B3FC06D897E898F89988D20E03FEF03
:102060004FE757E40E94BD0318164CF5698D7A8D31
:102070008B8D9C8D20E030E040E251E40E941702FD
:10208000DC01CB01BC01CD010E944100DC01CB0190
:102090009C8B8B8B0FC088EC90E09A8B898B898905
:1020A0009A890197F1F79A8B898B8B899C89019783
:1020B0009C8B8B8B8B899C89009769F714C06D89E9
:1020C0007E898F89988D0E944100DC01CB019C8B19
:1020D0008B8B8B899C89988B8F878F8598890197AB
:1020E000F1F7988B8F8782E00E94F90888E20E94BE
:1020F000F9088CE00E94F90886E00E94F90881E066
:102100000E94F90880E090E0A0E0B0E48B879C8713
:10211000AD87BE876B857C858D859E8520E030E010
:102120004AEF54E40E941702DC01CB018F839887A9
:10213000A987BA876F81788589859A8520E030E004
:1021400040E85FE30E941D0488232CF481E090E0C6
:102150009E838D833FC06F81788589859A8520E035
:102160003FEF4FE757E40E94BD0318164CF56B850F
:102170007C858D859E8520E030E040E251E40E9420
:102180001702DC01CB01BC01CD010E944100DC0142
:10219000CB019E838D830FC088EC90E09C838B8362
:1021A0008B819C810197F1F79C838B838D819E812C
:1021B00001979E838D838D819E81009769F714C05E
:1021C0006F81788589859A850E944100DC01CB0169
:1021D0009E838D838D819E819A83898389819A8153
:1021E0000197F1F79A8389836C960FB6F894DEBF56
:1021F0000FBECDBFCF91DF910895DF93CF9300D075
:1022000000D0CDB7DEB79C838B831A8219820FC0B2
:1022100029813A818B819C81FC01E20FF31F80812F
:102220000E94760C89819A8101969A8389832981FB
:102230003A818B819C81FC01E20FF31F808188230E
:1022400039F70F900F900F900F90CF91DF91089575
:10225000DF93CF93CDB7DEB72E970FB6F894DEBFDE
:102260000FBECDBF81E00E94F90880E090E0A0E0C1
:10227000B0E48B879C87AD87BE876B857C858D8519
:102280009E8520E030E04AEF54E40E941702DC0112
:10229000CB018F839887A987BA876F8178858985D5
:1022A0009A8520E030E040E85FE30E941D04882327
:1022B0002CF481E090E09E838D833FC06F81788510
:1022C00089859A8520E03FEF4FE757E40E94BD03E0
:1022D00018164CF56B857C858D859E8520E030E059
:1022E00040E251E40E941702DC01CB01BC01CD01A8
:1022F0000E944100DC01CB019E838D830FC088ECDE
:1023000090E09C838B838B819C810197F1F79C8368
:102310008B838D819E8101979E838D838D819E818C
:10232000009769F714C06F81788589859A850E9426
:102330004100DC01CB019E838D838D819E819A8338
:10234000898389819A810197F1F79A83898380E84B
:102350000E94F9082E960FB6F894DEBF0FBECDBFCF
:10236000CF91DF910895DF93CF93CDB7DEB780ECA7
:102370000E94F908CF91DF9108950F931F93DF9387
:10238000CF93CDB7DEB7C858D0400FB6F894DEBFB4
:102390000FBECDBFFE01EB57FF4F11821082FE0131
:1023A000ED57FF4F11821082FE01EF57FF4F118250
:1023B0001082FE01E158FF4F11821082FE01E358A6
:1023C000FF4F11821082FE01E558FF4F11821082EB
:1023D000FE01E758FF4F11821082FE01E958FF4FBE
:1023E00011821082FE01EB58FF4F11821082FE0114
:1023F000ED58FF4F11821082FE01EF58FF4F1182FE
:10240000108280E161E00E948F0680E161E00E941D
:10241000090789E161E00E948F0689E161E00E947D
:1024200009070E948C08FE01E359FF4F80E090E409
:10243000ACE9B5E480839183A283B3838E0107590D
:102440001F4FFE01E359FF4F6081718182819381AB
:1024500020E030E04AEF54E40E941702DC01CB0197
:10246000F80180839183A283B383FE01E759FF4F74
:10247000608171818281938120E030E040E85FE3F8
:102480000E941D04882344F4FE01E959FF4F81E0B6
:1024900090E09183808364C0FE01E759FF4F608123
:1024A00071818281938120E03FEF4FE757E40E94E2
:1024B000BD0318160CF043C0FE01E359FF4F6081C5
:1024C00071818281938120E030E040E251E40E94FA
:1024D0001702DC01CB018E0109591F4FBC01CD0150
:1024E0000E944100DC01CB01F801918380831FC071
:1024F000FE01EB59FF4F88EC90E091838083FE0151
:10250000EB59FF4F808191810197F1F7FE01EB5963
:10251000FF4F91838083DE01A959BF4FFE01E95926
:10252000FF4F80819181019711969C938E93FE01BC
:10253000E959FF4F808191810097D1F627C08E0124
:1025400009591F4FFE01E759FF4F60817181828158
:1025500093810E944100DC01CB01F80191838083CB
:10256000DE01AD59BF4FFE01E959FF4F80819181D6
:102570008D939C93FE01ED59FF4F808191810197CE
:10258000F1F7FE01ED59FF4F918380830E94F30F15
:102590000E94281180E690E00E94FD1080E090E00B
:1025A0000E94BA08FE01EB57FF4F9183808384E0BD
:1025B00090E00E94BA08FE01ED57FF4F918380839F
:1025C00085E090E00E94BA08FE01EF57FF4F91832B
:1025D000808386E090E00E94BA08FE01E158FF4F38
:1025E0009183808387E090E00E94BA08FE01E3585F
:1025F000FF4F91838083FE01EB57FF4F80819181D4
:10260000F2E0843A9F0740F0FE01E558FF4F81E079
:1026100090E09183808305C0FE01E558FF4F118251
:102620001082FE01ED57FF4F8081918123E08335B9
:10263000920740F0FE01E758FF4F82E090E091835F
:10264000808305C0FE01E758FF4F11821082FE0112
:10265000EF57FF4F80819181E2E08D3B9E0740F074
:10266000FE01E958FF4F84E090E09183808305C02C
:10267000FE01E958FF4F11821082FE01E158FF4F21
:1026800080819181F2E08F3E9F0740F0FE01EB5880
:10269000FF4F88E090E09183808305C0FE01EB58F6
:1026A000FF4F11821082FE01E358FF4F808191811C
:1026B00022E08B38920740F0FE01ED58FF4F80E199
:1026C00090E09183808305C0FE01ED58FF4F118299
:1026D0001082FE01E558FF4FDE01A758BF4F208151
:1026E00031818D919C91280F391FFE01E958FF4FD0
:1026F00080819181280F391FFE01EB58FF4F8081A7
:102700009181280F391FDE01AF58BF4FFE01ED58F0
:10271000FF4F80819181820F931F11969C938E931E
:10272000FE01EF58FF4F80819181C957DF4F998398
:102730008883C758D040C957DF4FE881F981C7580F
:10274000D040E031F10509F446C3C957DF4F888115
:102750009981C758D04081319105F0F4C957DF4FB6
:10276000E881F981C758D040E930F105A1F1C95796
:10277000DF4F88819981C758D0408C30910509F48A
:1027800032C2C957DF4FE881F981C758D040E830DD
:10279000F10509F4A7C202CFC957DF4F888199819B
:1027A000C758D0408B31910509F48EC3C957DF4F0C
:1027B000E881F981C758D040ED31F10509F481C1B4
:1027C000C957DF4F88819981C758D0408931910519
:1027D00009F4BCC0E3CE0E94281180E690E00E947C
:1027E000FD10FE01E15AFF4F80E090E0AAEFB4E453
:1027F00080839183A283B3838E01055A1F4FFE010C
:10280000E15AFF4F608171818281938120E030E045
:102810004AEF54E40E941702DC01CB01F8018083E7
:102820009183A283B383FE01E55AFF4F60817181DA
:102830008281938120E030E040E85FE30E941D0444
:10284000882344F4FE01E75AFF4F81E090E0918332
:10285000808364C0FE01E55AFF4F608171818281EF
:10286000938120E03FEF4FE757E40E94BD03181625
:102870000CF043C0FE01E15AFF4F608171818281FB
:10288000938120E030E040E251E40E941702DC0135
:10289000CB018E01075A1F4FBC01CD010E944100A0
:1028A000DC01CB01F801918380831FC0FE01E95A4E
:1028B000FF4F88EC90E091838083FE01E95AFF4F3F
:1028C000808191810197F1F7FE01E95AFF4F9183D1
:1028D0008083DE01A75ABF4FFE01E75AFF4F808178
:1028E0009181019711969C938E93FE01E75AFF4FB9
:1028F000808191810097D1F651CE8E01075A1F4FEA
:10290000FE01E55AFF4F60817181828193810E94AF
:102910004100DC01CB01F80191838083DE01AB5AD9
:10292000BF4FFE01E75AFF4F8081918111969C9322
:102930008E93FE01EB5AFF4F808191810197F1F751
:10294000FE01EB5AFF4F9183808328CE0E9428110D
:102950008FE690E00E94FD10FE01EF5AFF4F80E0ED
:1029600090E0AAEFB4E480839183A283B3838E01C5
:10297000035B1F4FFE01EF5AFF4F6081718182811F
:10298000938120E030E04AEF54E40E941702DC011A
:10299000CB01F80180839183A283B383FE01E35BC3
:1029A000FF4F608171818281938120E030E040E8B7
:1029B0005FE30E941D04882344F4FE01E55BFF4FA2
:1029C00081E090E09183808364C0FE01E35BFF4F70
:1029D000608171818281938120E03FEF4FE757E46E
:1029E0000E94BD0318160CF043C0FE01EF5AFF4FC2
:1029F000608171818281938120E030E040E251E486
:102A00000E941702DC01CB018E01055B1F4FBC0148
:102A1000CD010E944100DC01CB01F801918380834C
:102A20001FC0FE01E75BFF4F88EC90E0918380833D
:102A3000FE01E75BFF4F808191810197F1F7FE0175
:102A4000E75BFF4F91838083DE01A55BBF4FFE01F3
:102A5000E55BFF4F80819181019711969C938E9346
:102A6000FE01E55BFF4F808191810097D1F696CD05
:102A70008E01055B1F4FFE01E35BFF4F608171819B
:102A8000828193810E944100DC01CB01F801918396
:102A90008083DE01A95BBF4FFE01E55BFF4F8081B4
:102AA000918111969C938E93FE01E95BFF4F80818B
:102AB00091810197F1F7FE01E95BFF4F91838083DC
:102AC0006DCD0E9428118AE790E00E94FD100E94BF
:102AD000B31183E890E00E94FD10FE01ED5BFF4F13
:102AE00080E090E0AAEFB4E480839183A283B38373
:102AF0008E01015C1F4FFE01ED5BFF4F6081718114
:102B00008281938120E030E04AEF54E40E94170272
:102B1000DC01CB01F80180839183A283B383FE01A2
:102B2000FF96608171818281938120E030E040E8EE
:102B30005FE30E941D0488232CF481E090E09EAFA7
:102B40008DAF46C0FE01FF966081718182819381C5
:102B500020E03FEF4FE757E40E94BD03181664F5ED
:102B6000FE01ED5BFF4F608171818281938120E0E6
:102B700030E040E251E40E941702DC01CB01BC01CD
:102B8000CD010E944100DC01CB019EAF8DAF0FC093
:102B900088EC90E09CAF8BAF8BAD9CAD0197F1F7CB
:102BA0009CAF8BAF8DAD9EAD01979EAF8DAF8DADC0
:102BB0009EAD009769F7F2CCFE01FF9660817181AE
:102BC000828193810E944100DC01CB019EAF8DAFD9
:102BD0008DAD9EAD9AAF89AF89AD9AAD0197F1F7F2
:102BE0009AAF89AFDBCC0E9428118CE890E00E945C
:102BF000FD100E94B3118AE990E00E94FD1080E070
:102C000090E0AAEFB4E48DAB9EABAFABB8AF6DA9CB
:102C10007EA98FA998AD20E030E04AEF54E40E94ED
:102C20001702DC01CB0189AB9AABABABBCAB69A99A
:102C30007AA98BA99CA920E030E040E85FE30E94DC
:102C40001D0488232CF481E090E098AB8FA73FC04F
:102C500069A97AA98BA99CA920E03FEF4FE757E427
:102C60000E94BD0318164CF56DA97EA98FA998ADD9
:102C700020E030E040E251E40E941702DC01CB0189
:102C8000BC01CD010E944100DC01CB0198AB8FA7B4
:102C90000FC088EC90E09EA78DA78DA59EA50197FB
:102CA000F1F79EA78DA78FA598A9019798AB8FA73D
:102CB0008FA598A9009769F771CC69A97AA98BA902
:102CC0009CA90E944100DC01CB0198AB8FA78FA586
:102CD00098A99CA78BA78BA59CA50197F1F79CA70A
:102CE0008BA75CCC0E94281182EA90E00E94FD1024
:102CF00080E090E0AAEFB4E48FA398A7A9A7BAA7B1
:102D00006FA178A589A59AA520E030E04AEF54E4A8
:102D10000E941702DC01CB018BA39CA3ADA3BEA331
:102D20006BA17CA18DA19EA120E030E040E85FE393
:102D30000E941D0488232CF481E090E09AA389A3CB
:102D40003FC06BA17CA18DA19EA120E03FEF4FE78A
:102D500057E40E94BD0318164CF56FA178A589A50C
:102D60009AA520E030E040E251E40E941702DC0125
:102D7000CB01BC01CD010E944100DC01CB019AA333
:102D800089A30FC088EC90E098A38F8F8F8D98A1B6
:102D90000197F1F798A38F8F89A19AA101979AA320
:102DA00089A389A19AA1009769F7F8CB6BA17CA1AF
:102DB0008DA19EA10E944100DC01CB019AA389A3B1
:102DC00089A19AA19E8F8D8F8D8D9E8D0197F1F790
:102DD0009E8F8D8FE3CB0E9428118CEA90E00E9499
:102DE000FD1080E090E0AAEFB4E4898F9A8FAB8F5A
:102DF000BC8F698D7A8D8B8D9C8D20E030E04AEF01
:102E000054E40E941702DC01CB018D8B9E8BAF8BAB
:102E1000B88F6D897E898F89988D20E030E040E8F9
:102E20005FE30E941D0488232CF481E090E09C8BDA
:102E30008B8B3FC06D897E898F89988D20E03FEF15
:102E40004FE757E40E94BD0318164CF5698D7A8D43
:102E50008B8D9C8D20E030E040E251E40E9417020F
:102E6000DC01CB01BC01CD010E944100DC01CB01A2
:102E70009C8B8B8B0FC088EC90E09A8B898B898917
:102E80009A890197F1F79A8B898B8B899C89019795
:102E90009C8B8B8B8B899C89009769F77FCB6D8985
:102EA0007E898F89988D0E944100DC01CB019C8B2B
:102EB0008B8B8B899C89988B8F878F8598890197BD
:102EC000F1F7988B8F876ACB0E94281186EB90E0F0
:102ED0000E94FD100E94B31183EC90E00E94FD104F
:102EE00080E090E0AAEFB4E48B879C87AD87BE8733
:102EF0006B857C858D859E8520E030E04AEF54E42B
:102F00000E941702DC01CB018F839887A987BA87BB
:102F10006F81788589859A8520E030E040E85FE31D
:102F20000E941D0488232CF481E090E09E838D8311
:102F30003FC06F81788589859A8520E03FEF4FE714
:102F400057E40E94BD0318164CF56B857C858D8572
:102F50009E8520E030E040E251E40E941702DC014F
:102F6000CB01BC01CD010E944100DC01CB019E835D
:102F70008D830FC088EC90E09C838B838B819C8138
:102F80000197F1F79C838B838D819E8101979E83AE
:102F90008D838D819E81009769F700CB6F81788545
:102FA00089859A850E944100DC01CB019E838D8337
:102FB0008D819E819A83898389819A810197F1F716
:102FC0009A838983EBCA2F923F924F925F926F92BE
:102FD0007F928F929F92AF92BF92CF92DF92EF92A9
:102FE000FF920F931F93CF93DF93CDB7DEB7CA1B2A
:102FF000DB0B0FB6F894DEBF0FBECDBF09942A8855
:10300000398848885F846E847D848C849B84AA84FC
:10301000B984C884DF80EE80FD800C811B81AA8189
:10302000B981CE0FD11D0FB6F894DEBF0FBECDBF54
:08303000ED010895F894FFCFB3
:1030380054686174277320417765736F6D65004923
:10304800204C6F766520596F750049207265616C58
:103058006C79004C6F766520796F75004920676F31
:1030680074206D792065796573006F6E20796F75AE
:103078002E004845592C20594F552100476F6F6441
:1030880020576F726B0049207769736820796F75D4
:103098002061006861707079206C696665000000C5
:1030A8000000000000003A003700340031003B0007
:0E30B800380035003200390036003300300099
:00000001FF
